:020000040800F2
:10440000980B0020D54500087174000869740008F5
:104410006D74000861490008D176000800000000B2
:104420000000000000000000000000007974000897
:104430008949000800000000757400087D740008B8
:10444000EF450008EF450008EF450008EF4500087C
:10445000EF450008EF450008EF450008EF4500086C
:10446000EF450008EF450008EF450008EF4500085C
:10447000EF450008EF450008EF45000871490008C6
:10448000EF450008EF45000855490008EF450008D2
:10449000EF45000865490008EF450008EF450008B2
:1044A000EF450008EF450008EF450008EF4500081C
:1044B000EF450008EF450008EF450008EF4500080C
:1044C000EF450008EF450008EF450008EF450008FC
:1044D000EF450008EF450008A1750008EF4500080A
:1044E000EF450008EF450008EF450008EF450008DC
:1044F000EF450008EF450008EF450008EF450008CC
:10450000EF450008EF450008EF450008EF450008BB
:10451000EF450008EF450008EF450008EF450008AB
:10452000EF4500087D490008EF450008EF45000809
:1045300000F002F800F03FF80AA090E8000C824476
:104540008344AAF10107DA4501D100F034F8AFF253
:10455000090EBAE80F0013F0010F18BFFB1A43F061
:104560000103184794420000B4420000103A24BFEF
:1045700078C878C1FAD8520724BF30C830C144BFC8
:1045800004680C607047000000230024002500260A
:10459000103A28BF78C1FBD8520728BF30C148BFA6
:1045A0000B607047642900F07D80002070471FB5C4
:1045B0001FBD10B510BD00F092F91146FFF7F7FFCF
:1045C00003F0BEFB00F0B0F903B4FFF7F2FF03BC49
:1045D00000F0B8F90948804709480047FEE7FEE7C0
:1045E000FEE7FEE7FEE7FEE7FEE7FEE7FEE7FEE7A3
:1045F00004480549054A064B7047000081740008CD
:104600003145000898050020980B002098070020ED
:10461000980700200FB41CB5074B06AA7B446946D7
:104620000090059800F043F90020694600F052F927
:104630001CBC5DF814FB0000B50200002DE9F04140
:104640000E460446002020622046E168884730B3C9
:10465000252805D0D4E901219047206A401CF2E7C3
:10466000E168204600278847050018D0A5F14100E1
:10467000192802D820354FF40067324629462046D3
:104680002760FFF78FFF40B1012804D0F61D26F008
:1046900007060836D8E7361DD6E72846DAE7206A47
:1046A000BDE8F0812DE9F041064600241068752927
:1046B000314616A510D0AFF30080002802DA404240
:1046C00013A507E031688A0701D512A502E0490762
:1046D00004D511A5012401E0AFF3008000210A22D6
:1046E00006F1240709E0B0FBF2FCB0FBF2F302FB99
:1046F0001C00303078541846491C0028F3D123465A
:104700002A463046BDE8F04100F073B800000000D2
:104710002D0000002B0000002000000010B5431CFD
:1047200002E010F8011B71B18107FAD14FF001329C
:1047300002C88C1A8C4314EAC211F9D0C01A0A06B6
:1047400003D0C01E10BDC01A10BD0A0401D0801EC7
:1047500010BD0902FCD0401E10BD4FF0000204291C
:10476000C0F0128010F0030C00F01B80CCF1040CA0
:10477000BCF1020F18BF00F8012BA8BF20F8022BD4
:10478000A1EB0C0100F00DB85FEAC17C24BF00F87A
:10479000012B00F8012B48BF00F8012B70474FF0A8
:1047A000000200B5134694469646203922BFA0E881
:1047B0000C50A0E80C50B1F12001BFF4F7AF09078D
:1047C00028BFA0E80C5048BF0CC05DF804EB89007E
:1047D00028BF40F8042B08BF704748BF20F8022BC1
:1047E00011F0804F18BF00F8012B704770477047D9
:1047F00070472DE9F0470D4699469246044600F170
:1048000024080168880604D5E06921F010012160C0
:1048100000E00120A84201DD471B00E00027A1695C
:104820007A1902EB0900081AA0612078C00602D4A8
:104830002046AFF30080002608E0D4E901211AF8F1
:1048400006009047206A401C761C20624E45F4DB2F
:104850002078C0060AD52046AFF3008006E0D4E9F0
:10486000012130209047206A401C2062381EA7F1A9
:104870000107F4DC07E0D4E9012118F805009047AE
:10488000206A401C2062281EA5F10105F3DC2046A9
:10489000AFF300802078000602D50220BDE8F08743
:1048A0000120FBE701694A1C02610878704700B5E6
:1048B0008FB0CDE901310021059105497944CDE959
:1048C000031011466846FFF7B9FE0FB000BD0000A7
:1048D000E5FFFFFF0A6802F8010B0A6070477546A2
:1048E00000F02CF8AE4605006946534620F007005C
:1048F000854618B020B5FFF77BFEBDE820404FF09D
:1049000000064FF000074FF000084FF0000BAC46D8
:10491000ACE8C009ACE8C009ACE8C009ACE8C00923
:1049200021F007018D46704710B50446AFF30080B3
:104930002046BDE81040FFF747BE00000048704722
:104940001800002001491820ABBEFEE72600020037
:104950007047000040F2C810C2F2000000F0F6B844
:10496000FEE7000040F2A010C2F2000000F0E8BB39
:1049700040F20420C2F2000000F0E8BE40F24820FD
:10498000C2F2000000F0E2BE70470000EFF31080BA
:1049900072B600BFFEE700007047000010B581B09E
:1049A0000022009290F82420012A03D10221084617
:1049B00001B010BD4B680122062B80F8242017D8C7
:1049C000D0F800C003EB83035A1F1F23DCF834E048
:1049D00003FA02F40B682EEA040403FA02F22243FB
:1049E000CCF83420092B03EB430219D936E000BF81
:1049F000D0F800C00C2B03EB83021DD8233A1F23F1
:104A0000DCF830E003FA02F40B682EEA040403FA3F
:104A100002F22243CCF83020092B03EB43021DD8CD
:104A2000DCF81030072489689440A343914019436F
:104A3000CCF81010002130E0413A1F23DCF82CE0C4
:104A400003FA02F40B682EEA040403FA02F222438A
:104A5000CCF82C20092B03EB4302E1D9DCF80CE065
:104A60001E3A0724896894402EEA0404914023F0FA
:104A700001022143102ACCF80C100DD142F208415A
:104A8000C4F20101A1F1080294450DD0816A41F000
:104A900020018162012100E00021002280F8242011
:104AA000084601B010BD00BF0A68120230D40A687F
:104AB000102B42F400020A602CD140F20C01C2F229
:104AC000000109684DF68362C4F21B32A1FB021299
:104AD000910C01EB8101490000910099E1B100992D
:104AE000013900910099C9B10099013900910099EB
:104AF000B1B1009901390091009999B1009901393A
:104B00000091009900294FF00001E8D1C5E700BFEE
:104B10000021C2E70021C0E70021BEE70021BCE779
:104B20000021BAE70021B8E780B501680968890764
:104B300058BF80BD00F006F880B2BDE8804003F0A9
:104B40005FBB00000068C06C7047000070B5044691
:104B5000006805684668B10627D515F0020124D023
:104B6000A16AC90603D4A16A41F40071A1628168F7
:104B700001F46021B1F5602F10D1217B71B941683A
:104B800021F020014160A06A20F48070A062A06A38
:104B9000C00403D4A06A40F00100A0622046FFF7E1
:104BA000C3FF20686FF012010160310633D515F0A4
:104BB000040130D0A16AC90603D4A16A41F40051AE
:104BC000A162816801F4E041B1F5E04F10D1416884
:104BD00021F080014160A06A20F48050A062A06AA8
:104BE000C00511D4A06A40F00100A0620CE000BF33
:104BF0004168490508D4816801F46021B1F5602F4E
:104C000002D1217B0029E2D02046FFF7C5FE2068B3
:104C10006FF00C01016070060ED515F0010008BFA1
:104C200070BDA06A40F48030A062204600F0BEF85B
:104C300020686FF00101016070BD0000B0B5002870
:104C400000F0B2800446806A20B121688868C007FD
:104C50000BD114E00020E06284F82400204600F02C
:104C6000A7F821688868C00709D0886820F001008B
:104C7000886001F013F821688A68D20730D1A06AF1
:104C8000C00644D4A06A41F2021290430230A062EE
:104C9000E36981F0804080F49E3083F44022104329
:104CA00008BF4FF40023D4E9010243EA000C531E6D
:104CB000B3FA83F35D091346B2F5807F18BF2B0268
:104CC000207D257B01284CEA450030D135B3A56A0B
:104CD00045F02005A562E56A45F00105E56226E09C
:104CE000054602E08868C007C9D000F0D7FF401B26
:104CF00021680328F6D38868C007F3D0A06A40F083
:104D00001000A062E06A40F00100E062A06AA06AC0
:104D100040F01000A0620120B0BD00BFD4F818C060
:104D20004EF60005CFF6FF7505EB4C352B434D686D
:104D3000B2F5807F25F4694543EA05034B608B6833
:104D40004FF2FD75CFF6E17503EA050343EA000370
:104D50008B6001D0012A07D122690023CFF6F073BE
:104D600003EB025201E000BF0022CB6A23F4700380
:104D70001A43CA62896840F6FE62CFF61F7211407C
:104D8000814207D10020E062A16A012262F30101A1
:104D9000A162B0BDA06A40F0100020F00200A06245
:104DA000E06A40F00100E0620120B0BD7047000001
:104DB00070B586B040F60044C4F20104006804F502
:104DC000C05188424FF00000CDE9040002D006B087
:104DD00070BD00BF41F21800C4F20200016802ADCC
:104DE00041F4007101600168032601F40071019132
:104DF0000199016841F010010160016801F01001A2
:104E000001910199016841F008010160006829469B
:104E100000F008000190019804F58060CDE9026679
:104E200000F032FE20462946CDE9026600F02CFE55
:104E300012200021002200F0B3FF122000F09CFF9E
:104E400006B070BD90F82020013A012A08D8006809
:104E500000F114020020136819431160704700BF6D
:104E600000F1240201204FF48021136819431160DE
:104E70007047000010B590F820E0D0F800C0AEF107
:104E8000010EBEF1010FDCF808E011D81EF0E05F62
:104E900018D0CEF3016E012000FA0EF018608B6876
:104EA000D3B14868CC6844EAC000034318E000BFAF
:104EB00000F1240101204FF480220B681A430A609C
:104EC00010BD00BF00F1240101204FF400120B6857
:104ED0001A430A6010BD00BF0868CB6843EA40531C
:104EE0000CEB0E10C0F880310B69C0F88431097DDD
:104EF000012905D100F5C2710B6843F480730B6082
:104F00005168C0F88C11126800F5C071C0F8882192
:104F1000002001220B681A430A6010BDB0B5026878
:104F200090F82030013B012B28D8D2F80002012351
:104F300040F00100C2F80002D1F814E0CC690EF094
:104F40001F0003FA00F0D2F81C326FEA000C834312
:104F5000012CC2F81C3217D06CBBD2F80C3203EA19
:104F60000C03C2F80C32CB688C8844EA034302EB92
:104F7000CE04C4F840320B4615E000BF416A41F44C
:104F8000802141620120B0BDD2F80C320343C2F847
:104F90000C320B688C8844EA034302EBCE04C4F85D
:104FA000403201F10C038C681B8843EA044302EB96
:104FB000CE04C4F84432D2F804328D6943EA0004C6
:104FC000D1F810E0096A002D08BF03EA0C04C2F80A
:104FD0000442D2F81432BEF1000F43EA000408BFC5
:104FE00003EA0C040129C2F8144204D1D2F81C12BD
:104FF0000843C2F81C02D2F8000220F00100C2F8F7
:1050000000020020B0BD00007047000010B590F80D
:105010002040013C012C7BD8D0F800C0002900F0D2
:105020008180DCF81040A40700F081800CEB011CAB
:10503000DCF8B0410CF5D87E14F004049460DCF880
:10504000B04119BFE4085460640D1460DEF80040FC
:105050000CF5DA7E04F00204D460DCF8B4412407D5
:105060005ABFDEF8004004F00F0408241461DEF893
:1050700000400029C4F307249461DEF800404FEAA1
:1050800014445461DCF8B8211A70026802EB011272
:10509000D2F8B8214FEA12225A70026802EB0112CC
:1050A000D2F8B8214FEA12429A70026802EB01125C
:1050B000D2F8B8214FEA1262DA70026802EB0112EC
:1050C000D2F8BC211A71026802EB0112D2F8BC219D
:1050D0004FEA12225A71026802EB0112D2F8BC2187
:1050E0004FEA12429A71026802EB0112D2F8BC2117
:1050F0004FEA1262DA71006814BF00F1100100F18A
:105100000C01002020220B681A430A6010BD00BF6A
:1051100000F1240101204FF480220B681A430A6039
:1051200010BD00BFDCF80C40A4077FF47FAF00F196
:10513000240101204FF400120B681A430A6010BDCD
:105140002DE9F04F81B0044600684669D0F804901C
:105150008768D0F80CB0D0F810A0D0F81880F1070C
:1051600004D1002530071DD424E000BFF90710D07A
:105170000121BA07816009D4780700F1AF803807B0
:1051800000F1B680204600F017FA02E0204600F059
:1051900015FA0025F80500F18780F80300F1B180C9
:1051A000300707D51BF0100004D0206845F40075C7
:1051B0001021C160700708D51BF0080005D02068D9
:1051C0000821C160204600F0ABF9B00706D5206881
:1051D000C068800702D0204600F0A4F9700607D509
:1051E0001AF0100004D0206845F480651021016198
:1051F000B00608D51AF0080005D020680821016122
:10520000204600F091F9F00606D520680069800775
:1052100002D0204600F08AF9B00308D519F010003A
:1052200005D0206810214160204600F095F9F00378
:1052300008D519F0080005D02068082141602046F3
:1052400000F0C6F9300440F19B805FEA497040F1FC
:10525000948006F4807008EA102028435FEA887181
:10526000014648BF41F00201B20558BF01465FEA5E
:1052700048700D4648BF45F00405700558BF0D46FF
:10528000300540F17A8018F0700000F07680103818
:10529000000905286CD8DFE800F003595D616569F5
:1052A00045F0080564E000BF20684FF48071BA053E
:1052B00081600BD4780515D438051DD4204600F044
:1052C0007FF9F8037FF56CAF1BE000BF204600F0CC
:1052D00079F9F8037FF564AF13E000BF4FF4006580
:1052E00058E700BF05F50055F8037FF559AF08E012
:1052F0004FF480554EE700BF05F58045F8037FF574
:105300004FAF20684FF48031BA0381600AD478032C
:1053100010D4380314D4204600F056F930073FF576
:1053200041AF47E7204600F051F930073FF53AAF6B
:1053300040E700BF05F5004530073FF533AF39E7DB
:1053400005F5803530073FF52DAF33E745F0100503
:105350000EE000BF45F020050AE000BF45F0400523
:1053600006E000BF45F0800502E000BF45F480750F
:105370002068816921F07001816120680421416009
:1053800055B1606A40EA05012046616201B0BDE89E
:10539000F04FFFF739BE00BF01B0BDE8F08F00004D
:1053A000B0B5C8B1044690F8200010B9204600F00E
:1053B00071F82068016841F00101016000F06EFCA5
:1053C000054600BF20684168C90707D100F066FCA8
:1053D000401B0B28F6D312E00120B0BD016821F07C
:1053E0000201016000F05AFC054600BF20684168D8
:1053F00089070DD500F052FC401B0B28F6D3606ADC
:10540000052140F400306062012084F82010B0BD16
:10541000217E0268012922F0800208BF80320260EA
:10542000617E0268012922F0400208BF403202601A
:10543000A17E0268012922F0200208BF203202600A
:10544000E17E0268012922F0100218BF10320260CA
:10545000217F0268012922F0080208BF0832026099
:10546000617F0268012922F0040208BF0432026051
:10547000D4E901C2D4E9033561691A432A431143CF
:10548000ACF101021143C16100200121606284F886
:105490002010B0BDB0B586B040F60004C4F20104DF
:1054A0000068A4F5244200219042059102D006B084
:1054B000B0BD00BF41F21800C4F20200426802AD64
:1054C00042F000724260426802F000720192019A5A
:1054D000026842F004020260006800F004000190DB
:1054E00001984FF40060CDE902010491204629465D
:1054F00000F0CAFA4FF4805002900220039003207B
:1055000005902046294600F0BFFA15200021002210
:1055100000F046FC152000F02FFC06B0B0BD0000E6
:10552000704700007047000070470000B0B540F2BF
:105530005414C2F2000404F1300204F10803012102
:105540000125FFF763FD606B4FF62171C1F6EF0196
:10555000884208BF2560B0BD70470000B0B5044662
:1055600090F8200001281DD1022084F82000206836
:10557000016821F00101016000F090FB054600BFC9
:1055800020684068C00713D000F088FB401B0B2840
:10559000F6D3606A40F400306062052084F8200091
:1055A0000120B0BD606A40F4002060620120B0BDFF
:1055B00000206062B0BD000070470000704700002E
:1055C00070470000704700007047000070470000FF
:1055D00070470000014690F82100022816D10868A3
:1055E000D1E90FC3026822F00E020260026822F0C5
:1055F00001020260012000FA03F2CCF8042081F8D5
:1056000021000020002281F82020704704208863B8
:105610000120002281F820207047000080B590F81A
:105620002110022928D1026840F2040C1368C4F248
:10563000020C23F00E03136013680CF17C018A4204
:1056400023F0010111601BD940F20841C4F20201AC
:105650008A4249D040F21C41C4F202018A4247D03A
:1056600040F23041C4F202018A4245D14FF48073C6
:10567000CCF800345DE000BF04218163012080BDCF
:105680004321C4F202018A420EDD6B21C4F2020101
:105690008A421BDC4421C4F202018A423CD05821D8
:1056A000C4F202018A4233E00821C4F202018A42B4
:1056B00036D01C21C4F202018A4237D03021C4F214
:1056C00002018A4224D14FF4807230E06C21C4F28E
:1056D00002018A4226D08021C4F202018A4217D1F7
:1056E0004FF0807223E000BF0123CCF8003420E0AB
:1056F0001023CCF800341CE00CF588614FF48033A3
:105700008A4208BF4FF48053CCF8003411E000BF48
:105710004FF480320BE000BF4FF4805207E000BF2F
:10572000012204E04FF4801201E000BF1022CCF807
:105730000020012180F82110426B002180F8201008
:105740000AB190470021084680BD000010B5D0E99D
:105750000FE3D0F800C0DEF80020DCF80010DA40DB
:1057600054072DD511F004042AD0DCF80010890666
:1057700005D4DCF8001021F00401CCF8001004225C
:10578000C4F2020202F17C018C454DD940F208417D
:10579000C4F202018C4500F0B18040F21C41C4F219
:1057A00002018C4500F0AE8040F23041C4F20201AB
:1057B0008C4540F0AB804FF48061C2F80014F9E0F2
:1057C000940747D511F0020444D0DCF80010890694
:1057D00008D4DCF8001021F00A01CCF800100121F7
:1057E00080F821100422C4F2020202F17C018C45EF
:1057F0004ED940F20841C4F202018C4500F0B68057
:1058000040F21C41C4F202018C4500F0B38040F22A
:105810003041C4F202018C4540F0B0804FF4007179
:10582000C2F80014D8E000BF4321C4F202018C4545
:1058300044DD6B21C4F202018C4551DC4421C4F2E9
:1058400002018C4500F0A6805821C4F202018C456B
:1058500068E000BF120740F1C58011F0080108BFE1
:1058600010BDDCF8001021F00E01CCF80010012171
:1058700001FA03F2CEF80420816380F82110016B55
:105880000022002980F8202040F09680AAE000BF86
:105890004321C4F202018C4548DD6B21C4F20201B0
:1058A0008C4555DC4421C4F202018C4500F088800F
:1058B0005821C4F202018C4576E000BF0821C4F2F1
:1058C00002018C456AD01C21C4F202018C456FD0C4
:1058D0003021C4F202018C4524D14FF4806168E08C
:1058E0006C21C4F202018C455AD08021C4F202011D
:1058F0008C4517D14FF080615BE000BF0421C2F8F6
:10590000001457E04021C2F8001453E002F5886308
:105910004FF480219C4508BF4FF48041C2F8001429
:1059200048E000BF4FF4802143E000BF0821C4F2EB
:1059300002018C4548D01C21C4F202018C4549D09B
:105940003021C4F202018C452ED14FF4007142E0A7
:105950006C21C4F202018C4538D08021C4F20201CE
:105960008C4521D14FF0007135E000BF0221C2F813
:10597000001431E02021C2F800142DE002F5886304
:105980004FF400319C4508BF4FF40051C2F8001499
:1059900022E000BF4FF480410BE000BF042108E08B
:1059A0004FF4800105E000BF4FF4003113E000BF69
:1059B00040211160C16AA9B1BDE81040084700BF8D
:1059C0004FF4005107E000BF022104E04FF4001142
:1059D00001E000BF20211160816A0022002980F8C7
:1059E0002020E9D110BD0000014600284FF0010041
:1059F00008BF70472DE9F04740F2000CC4F2020CDA
:105A00000A684FF6F8330CF5816ECBF6FD737245DC
:105A100038BF03F5806303EB020E4CF6CD43CCF6A2
:105A2000CC43AEFB033E6FF003060CF5806506EA3F
:105A30009E06D1E901A9D1F80C803CBF0025C4F233
:105A40000205C1E90F56022681F82160166843F667
:105A5000F075AE4346EA0A06D1E9045746EA09065C
:105A600046EA0806D1E906432E43374327433B4322
:105A7000136000228A6381F8210081F82020002031
:105A8000BDE8F047704700002DE9F04F82B0D1F833
:105A900000C0BCF1000F00F0F180A0F1804241F69F
:105AA0000045A2F58432C4F2010540F2004E4FEAEF
:105AB000B2240627A842C4F2010E08BF0527052C10
:105AC0004FF000044FF001084FF00F034FF0000AB1
:105AD0004FF0000B38BF4FEAB22700970AE000BF33
:105AE000D1F800C00AF1010A3CFA0AF204F10404F8
:105AF00000F0C48008FA0AF91CEA090FF0D04E68D9
:105B00004FF6FF72C1F21002964211DC122E55D8E8
:105B1000DFE806F0340A444854545454545454545E
:105B200054545454544C5000D1F80CB046E000BFCB
:105B30004FF6FF72C1F2210296420FDC0022C1F241
:105B4000110296421AD00022C1F21202964215D0DA
:105B50000022C1F22102964210D02FE00022C1F2B1
:105B6000220296420AD00022C1F23102964205D0AA
:105B70000022C1F23202964220D100BF8A684AB1A7
:105B8000012A14BFC0F81490C0F810904FF0080B11
:105B900014E000BF4FF0040B10E000BFCA6802F130
:105BA000080B0BE04FF0000B08E000BFCA6802F1E1
:105BB000040B03E0CA6802F10C0B00BF2246064644
:105BC000BAF1080F24BF203A0436376803FA02F509
:105BD000AF430BFA02F23A433260CA79D2067FF53C
:105BE0007FAF41F21807C4F202073A684FF6084344
:105BF00042F001023A603A68CFF6FF7302F0010208
:105C00000192019A2AF0030272440F25D75804F03A
:105C10000C06B540AF43009D05FA06F63743D75052
:105C20004E6840F20C45F202DEF8082054BF22EA2A
:105C3000090242EA0902CEF80820C4F201052A68E6
:105C4000B70254BF22EA090242EA09022A60DEF8DA
:105C50000420B70354BF22EA090242EA0902CEF83F
:105C600004200F23DEF80020F70354BF22EA0902C4
:105C700042EA0902CEF8002032E700BF02B0BDE8D8
:105C8000F08F00008068084018BF012070470000B6
:105C9000002A08BF090401617047000040F29050DB
:105CA000C2F200000068704740F2000040F29051DC
:105CB000C2F20000C2F2000100780A6810440860D5
:105CC0007047000080B542F20000C4F20200016893
:105CD00041F010010160032000F08EF80F2000F069
:105CE00005F800F027F8002080BD000070B540F2F4
:105CF0000006C2F2000640F20C013278C2F2000146
:105D00004FF47A730968B3FBF2F20446B1FBF2F187
:105D1000084600F0CFFC0F2C4FF0010508D838B929
:105D20004FF0FF3021460022002500F039F8746062
:105D3000284670BD82B041F21800C4F2020001682A
:105D4000022241F001010160016801F001010191AD
:105D50000199416841F080514160406800F08050F5
:105D6000009000980420C4F20100016862F31A61F7
:105D7000016002B070470000002848BF7047C1B200
:105D800000F01F00012202FA00F04EF20012CEF2E3
:105D9000000242EAD10121F00301086070470000CF
:105DA00010B54EF60C5CCEF2000CDCF80030C3F3FC
:105DB000022E8EF00704042C28BF0424BEF1030336
:105DC0004FF0FF3E0EFA04F438BF0023A143994080
:105DD0000EFA03F39A43114300F00F0200F16043FF
:105DE0000901043A03F564436244002848BF02F104
:105DF0000C03197010BD00004EF60C51CEF20001DC
:105E00000A684FF6FF031A4060F30A2242F08060EE
:105E100040F0FD70086070472DE9F04182B0044603
:105E2000007841F21C06C007C4F202064AD030686E
:105E300010F0805808D1306840F0805030603068F1
:105E400000F080500190019847F20007C4F200076B
:105E50003868C00512D4386840F480703860FFF7A5
:105E60001DFF05463868C00508D4FFF717FF401B23
:105E70006428F7D9032002B0BDE8F081706810F4FF
:105E8000407012D0616801F4407188420DD0706892
:105E900040F24042C4F24222012320F440711360D8
:105EA0000023C007136071602AD17068616820F414
:105EB00040700843B8F1000F706003D1306820F0E3
:105EC000805030602068810707D556F8181CA268FA
:105ED00021F44041114346F8181CC00604D40020A8
:105EE00002B0BDE8F08100BF56F8180C616920F4DB
:105EF0008000084346F8180C002002B0BDE8F0818D
:105F0000FFF7CCFE054641F2883700BF7068800776
:105F1000CBD4FFF7C3FE401BB8424FF00300F5D9C6
:105F2000EBE700002DE9F04381B0002800F0858008
:105F300042F20008C4F202080446D8F800000D46F8
:105F400000F0070088420CD2D8F8000020F00700CB
:105F50002843C8F80000D8F8000000F00700A84265
:105F60006BD1206841F204098107C4F2020917D5F8
:105F7000410705D5D9F8001041F4E061C9F80010D7
:105F8000010705D5D9F8001041F46051C9F8001097
:105F9000D9F80010A26821F0F0011143C9F80010EF
:105FA000C00741D1D8F8000000F00700A8420CD982
:105FB000D8F8000020F007002843C8F80000D8F8FF
:105FC000000000F00700A84237D12068410707D53C
:105FD000D9F80010E26821F4E0611143C9F800101B
:105FE000000708D5D9F80000216920F4605040EA84
:105FF000C100C9F80000D9F8002002F00C00082800
:1060000041F20020C0F27A0050D148F2E673C2F3A8
:106010008341C0F60003595CD2033BD440F6001024
:10602000C0F23D00484341E0606802280AD00128E0
:106030002AD159F8041C890308D4012001B0BDE815
:10604000F08300BF59F8041C8901F6D5D9F8001077
:1060500021F003010843C9F80000FFF71FFE0646C0
:1060600041F28837D9F80000616800F00C00B0EB0D
:10607000810F97D0FFF712FE801BB842F2D90320A0
:1060800001B0BDE8F08300BF59F8041C8907D4D5DE
:10609000DCE700BFD9F8002048F2E473C2F34042C5
:1060A000C0F600039A5C4843B0FBF2F0D9F8001048
:1060B00048F2CC72C1F30311C0F60002515C40F209
:1060C0000C0220FA01F140F20400C2F20000006864
:1060D000C2F200021160FFF709FE002001B0BDE826
:1060E000F083000040F20C0041F20401C2F2000013
:1060F000C4F202010068096848F2DC72C1F30221AF
:10610000C0F60002515CC8407047000040F20C002D
:1061100041F20401C2F20000C4F202010068096801
:1061200048F2DC72C1F3C221C0F60002515CC840E3
:10613000704700002DE9F04182B0002868D0044685
:10614000007841F20006C007C4F2020625D070684C
:1061500000F00C0004281BD0706800F00C00082828
:1061600002D17068C00313D46068002800F0688111
:10617000B0F5A02F00F07C81B0F5803F00F07C816D
:10618000306820F480303060306820F4802076E180
:106190003068800301D56068D0B32078800718D5B7
:1061A000706810F00C0F07D0706800F00C00082821
:1061B0006ED17068C0036BD43068800702D5206947
:1061C000012825D13068616920F0F80040EAC1005B
:1061D0003060207800071FD42078400732D4E5696A
:1061E00095B1706800F00C00082840F08F80012DF8
:1061F0000ED07068216A00F480328A4208D1616A48
:1062000000F47010884203D1002002B0BDE8F08194
:10621000012002B0BDE8F081A069002862D0002012
:10622000C4F242200121C0F88014FFF737FD054673
:10623000706A800700F18C80FFF730FD401B022858
:10624000F6D92AE1F06910F0805808D1F06940F0E1
:106250008050F061F06900F080500090009847F2A3
:106260000007C4F200073868C00529D4386840F434
:1062700080703860FFF712FD054600BF3868C00522
:106280001ED4FFF70BFD401B6428F7D905E100BFC2
:106290002069002840F20000C4F2422000F0828011
:1062A00001210160FFF7FAFC054600BF3068800756
:1062B0003FF588AFFFF7F2FC401B0228F6D9ECE06F
:1062C000E068002800F08080052800F09780012811
:1062D00000F09880306A20F001003062306A20F0CF
:1062E000040092E00020C4F242200021C0F8801493
:1062F000FFF7D4FC054600BF706A80077FF56CAFDE
:10630000FFF7CCFC401B0228F6D9C6E00027C4F2F8
:10631000422700203866FFF7C1FC022D05460BD14D
:106320003068800140F1BE80FFF7B8FC401B0228B6
:106330004FF00300F4D968E7306880017FF564AF5F
:10634000FFF7ACFC401B02284FF00300F4D95CE7D8
:1063500040F20C00C2F20000006844F6D351C1F2D2
:106360006201A0FB0101480A019000BF00BF019833
:10637000411E002801913FF42FAF00BF0198411E3C
:10638000002801913FF428AF00BF0198411E00286A
:1063900001913FF421AF00BF0198411E00280191F7
:1063A000E4D119E700210160FFF778FC054600BF42
:1063B000306880077FF50DAFFFF770FC401B0228A7
:1063C0004FF00300F4D920E7306A20F0010030627A
:1063D000306A20F004003062FFF760FC054641F2AD
:1063E000883700BF306A800720D5FFF757FC401B75
:1063F000B8424FF00300F5D907E700BF306A40F01C
:1064000004003062306A40F001003062FFF746FC61
:10641000054641F2883700BF306A800706D4FFF78F
:106420003DFC401BB842F7D937E000BFB8F1000F80
:106430007FF4D5AEF06920F08050F061CFE600BF68
:10644000306820F480303060306820F48020306084
:10645000FFF724FC054600BF306880037FF59DAE42
:10646000FFF71CFC401B64284FF00300F4D9CCE676
:10647000306840F480203060306840F48030306014
:10648000FFF70CFC054600BF306880033FF585AE82
:10649000FFF704FC401B6428F6D9032002B0BDE8D6
:1064A000F08100BF206AB0F5803F05D17168A26815
:1064B00021F40031114371607168626A21F4741132
:1064C00011430843706001203866FFF7E7FB04467C
:1064D000306880013FF598AEFFF7E0FB001B022813
:1064E0004FF00300F4D990E670B538B10446406A25
:1064F00030B10020206104F1140007E0012070BDDC
:106500006068B0F5827F03D004F11C0000210160B7
:106510000026A66294F8510020B9204684F8506005
:1065200000F038F8022084F8510094E8071001F4D4
:106530008271036802F4044223F04003036023697C
:1065400011440CF40062114403F002026369114427
:1065500003F00102A369E569114403F400721144D8
:1065600005F03802256A114405F08002A56A11433E
:1065700005F4005211430160042101EA1341416016
:10658000C16921F40061C1610120666584F8510090
:10659000304670BD70B586B00446006843F60041D1
:1065A000C4F20001002688420596CDE903660296F2
:1065B0003ED043F60001C4F20001884277D141F297
:1065C0001C00C4F20200016841F2180541F4804148
:1065D00001600068C4F2020500F480400190019857
:1065E000286802A940F008002860286800F0080028
:1065F000019001984FF42040029002200390032064
:10660000059040F60040C4F20100FFF73DFAA5F501
:106610007C6040F20425C2F2000500221021802394
:1066200085E80F00C5E90422C5E9062236E000BF6F
:1066300041F21C00C4F20200016841F2180541F465
:10664000004101600068C4F2020500F400400190BE
:106650000198286802A940F008002860286800F026
:106660000800019001982820029002200390032046
:10667000059040F60040C4F20100FFF705FAA5F6C8
:10668000FC3040F24825C2F200058022102185E846
:106690004300C5E90326C5E90566EE612846FFF714
:1066A000A3F9002818BFFEF771F9A5646C6206B063
:1066B00070BD0000411E0020B0EB116F1CBF012017
:1066C00070474EF21002CEF2000251604EF6235196
:1066D000CEF20001F0230B7007219060116070472B
:1066E00010B590F83C20012A4FF002023FD080F80C
:1066F0003D200268D2F804E0D2F808C00C682EF001
:106700007003234340F6FF34C4F20004A2425360F6
:1067100010DCB2F1804F1FD040F20043C4F20003FE
:106720009A4219D040F60003C4F200039A4213D0F3
:1067300017E000BF40F60043C4F200039A420BD0BA
:1067400043F20043C4F201039A4205D042F60043EB
:10675000C4F201039A4204D149682CF08003194322
:1067600091600121002280F83D1080F83C20104605
:1067700010BD0000002804BF0120704710B504467A
:1067800090F83D0028B9002084F83C00204600F035
:1067900085F8022084F83D00206840F6FF33026847
:1067A000C4F2000343F2004C9842C4F2010C21DC15
:1067B000B0F1804F2CD040F20041C4F20001884279
:1067C00026D040F60001C4F20001884220D0984251
:1067D00024DCB0F1804F2FD040F20041C4F2000120
:1067E000884229D040F60001C4F20001884223D03B
:1067F00026E000BF40F60041C4F20001884207D005
:10680000604505D042F60041C4F201018842DED164
:10681000A16822F070020A439842DADD40F6004196
:10682000C4F20001884207D0604505D042F600411D
:10683000C4F20101884203D1216922F440720A4363
:10684000A36922F08001D4F804E0E26819436045AE
:106850000160C262C0F828E005D042F60041C4F2EF
:106860000101884201D16169016301214161002078
:1068700084F8461084F83E1084F83F1084F84010E5
:1068800084F8411084F8421084F8431084F84410CE
:1068900084F8451084F83D1010BD000083B00068F6
:1068A000B0F1804F1ED040F20041C4F20001884296
:1068B00028D042F60041C4F2010188422FD141F2B2
:1068C0001C00C4F2020050F8041C41F4006140F8BE
:1068D000041C50F8040C00F400600290029803B00D
:1068E000704700BF41F21C00C4F20200016841F091
:1068F00001010160006800F001000190019803B0FF
:10690000704700BF41F21C00C4F20200016841F070
:1069100002010160006800F002000090009803B0DE
:106920007047000080B590F83C20012A4FF0020229
:1069300000F0C28080F83D20D0F800C04FF677729A
:10694000DCF8083023EA0202CCF808200B684F2B51
:1069500028DC1F2B44DD202B45D0302B43D0402B8F
:1069600040F0AC80D1F804E0C968DCF82030DCF8F5
:10697000202022F00102CCF82020DCF8182022F0A0
:10698000F00242EA011123F00A0242EA0E02CCF8B8
:106990001810CCF82020DCF8081041F0470121F055
:1069A000300180E06F2B27DDB3F5005F48D0B3F5F1
:1069B000805F7AD0702B40F08180D1E901E3C96813
:1069C000DCF8082043EA0E0322F47F4243EA012167
:1069D0001143CCF80810DCF8081041F0770162E0B0
:1069E0000BB1102B6AD1DCF8081021F070011943AB
:1069F00041F0070157E000BF502B35D0602B5DD12F
:106A0000D1F804E0C968DCF82030DCF8202022F05E
:106A10001002CCF82020DCF8182022F4704242EA60
:106A2000013123F0A00242EA0E12CCF81810CCF883
:106A30002020DCF8081041F0670121F0100132E05D
:106A4000D1E901E3C968DCF8082043EA0E0322F427
:106A50007F4243EA01211143CCF80810DCF808100A
:106A600041F480411FE000BFD1F804E0C968DCF8C0
:106A70002030DCF8202022F00102CCF82020DCF8C5
:106A8000182022F0F00242EA011123F00A0242EA41
:106A90000E02CCF81810CCF82020DCF8081041F0D9
:106AA000570121F02001CCF808100022012180F8C4
:106AB0003D10002180F83C10104680BD0122F5E712
:106AC0007047000070470000B0B582B0044600680F
:106AD0000168C368426901F02F05202D03F02005ED
:106AE00006D12DB1204602B0BDE8B04000F0D8BCC0
:106AF0005FEA017C1EBF02F0010E03F4907212EBFC
:106B00000E0253D1226B012A05D111F0100218BFD9
:106B100013F0100236D10A0622D513F080021FD0DE
:106B200094F8411021293FD1A168B1F5805F03D1CC
:106B30002169002900F07082216A4A1C22620978CA
:106B40004160E18C01390A04E1842DD1C16821F052
:106B50008001C160C16841F04001C16002B0B0BDB8
:106B6000490621D513F040011ED0C16821F0400133
:106B7000C1602021204684F8411002B0BDE8B04039
:106B800000F070BC00210191016801914168019100
:106B900001994069400613D4A08DE18DE28D002A51
:106BA00018BF884240F0BA8102B0B0BDCA0718BF12
:106BB00013F4807240F0B6804A0700F1B980BEE05D
:106BC000E06B016849688AB2002AEDD0A38D9A4231
:106BD000EAD2E1858069202800F09C80206850E896
:106BE000030F216820F4807041E80302DAB12068C5
:106BF00050E8030F216820F4807041E8030292B14D
:106C0000206850E8030F216820F4807041E80302F7
:106C10004AB1206850E8030F216820F4807041E8F1
:106C20000302002ADAD1206850E8050F216820F01D
:106C3000010041E80502DAB1206850E8050F21683B
:106C400020F0010041E8050292B1206850E8050FEC
:106C5000216820F0010041E805024AB1206850E8AF
:106C6000050F216820F0010041E80502002ADAD171
:106C7000206850E8050F216820F0400041E8050237
:106C8000DAB1206850E8050F216820F0400041E8A3
:106C9000050292B1206850E8050F216820F04000FD
:106CA00041E805024AB1206850E8050F216820F04C
:106CB000400041E80502002ADAD1202084F8420091
:106CC00000202063206850E8030F216820F01000A6
:106CD00041E80302DAB1206850E8030F216820F090
:106CE000100041E8030292B1206850E8030F2168C8
:106CF00020F0100041E803024AB1206850E8030F79
:106D0000216820F0100041E80302002ADAD1E06B8C
:106D1000FEF760FC02206063A08DE18D401A81B215
:106D2000204674E1626C42F0010262644A0706D5B3
:106D3000BEF1000F03D0626C42F0020262648A0767
:106D400006D5BEF1000F03D0626C42F0040262640B
:106D5000BCF1000F09D545EA0E02B2FA82F25209DF
:106D600003D1626C42F008026264626C002A3FF454
:106D70001BAF11F0200118BF002D03D0204600F0FA
:106D80008FFB20684069616C00F0400001F0080151
:106D9000401800F0B58000BF206850E8030F21685C
:106DA00020F4907041E80302BAB3206850E8030F62
:106DB000216820F4907041E8030272B3206850E823
:106DC000030F216820F4907041E803022AB3206881
:106DD00050E8030F216820F4907041E80302002A74
:106DE000DAD11AE0206850E8050F216820F0010090
:106DF00041E80502DAB1206850E8050F216820F06B
:106E0000010041E8050292B1206850E8050F2168B1
:106E100020F0010041E805024AB1206850E8050F62
:106E2000216820F0010041E80502002ADAD1206B38
:106E3000012824D1206850E8030F216820F01000B9
:106E400041E80302DAB1206850E8030F216820F01E
:106E5000100041E8030292B1206850E8030F216856
:106E600020F0100041E803024AB1206850E8030F07
:106E7000216820F0100041E80302002ADAD1202026
:106E800084F84200002020632068406940063FD516
:106E9000206850E8050F216820F0400041E8050215
:106EA000DAB1206850E8050F216820F0400041E881
:106EB000050292B1206850E8050F216820F04000DB
:106EC00041E805024AB1206850E8050F216820F02A
:106ED000400041E80502002ADAD1E06BC0B147F278
:106EE0009541C0F600014163FEF798FB00283FF48E
:106EF0005BAEE06B416B02B0BDE8B040084700BF3D
:106F00002046FFF7DFFD0020606402B0B0BD00BF87
:106F1000204602B0BDE8B040FFF7D4BD401A21685A
:106F200051E8031F226821F4907142E80313DBB19A
:106F3000216851E8031F226821F4907142E803138D
:106F400093B1216851E8031F226821F4907142E84F
:106F500003134BB1216851E8031F226821F490719B
:106F600042E80313002BDAD1216851E8051F22689B
:106F700021F0010142E80513DBB1216851E8051F4A
:106F8000226821F0010142E8051393B1216851E81C
:106F9000051F226821F0010142E805134BB1216869
:106FA00051E8051F226821F0010142E80513002B7A
:106FB000DAD1202184F8421000212163216851E8B0
:106FC000031F226821F0100142E80313DBB121689E
:106FD00051E8031F226821F0100142E8031393B126
:106FE000216851E8031F226821F0100142E80313D1
:106FF0004BB1216851E8031F226821F0100142E8DB
:107000000313002BDAD1022281B22046626302B060
:10701000BDE8B040FFF754BD216A31F8022B6FF391
:107020005F22426021628CE5002804BF0120704786
:1070300010B5044690F8410028B9002084F84000BB
:10704000204600F063F8242084F841002068D4E949
:107050000212C36823F40053C360036923F440534E
:107060001A430261D4E904231143C268194341F26F
:107070000C639A431143C1604169A26921F44071D4
:10708000114343F60002C4F201029042416103D071
:10709000FFF728F802E000BFFFF738F8626819210F
:1070A00048439100B0FBF1F048F21F51C5F2EB11DB
:1070B000A0FB01235A094FF69C73C0F6FF7302FB35
:1070C0000300322303EB0010A0FB0101F02303EACD
:1070D0005113206803EB0212C1F343111144816084
:1070E000016921F490410161416921F02A01416166
:1070F000C16841F40051C16000202021606484F81F
:10710000411084F84210606310BD000070B586B075
:1071100040F60004C4F201040068A4F544410026CE
:107120008842049602D006B070BD00BF41F218003C
:10713000C4F20200416802AD41F40031416041688F
:1071400001F4003101910199016841F004010160ED
:107150000068294600F00400019001980420029084
:1071600002200390032005902046FEF78DFC0820A6
:10717000CDE90206204629460496FEF785FC262026
:1071800000210022FEF70CFE2620FEF7F5FD06B0DA
:1071900070BD000090F84230202B1CBF02207047C9
:1071A00000294FF0010318BF002A01D1184670478B
:1071B00000230363816222218285C285436480F8B3
:1071C00042100169006819B1C16841F48071C16061
:1071D0004169002341F001014161C16841F0200192
:1071E000C16018467047000000F008BA2DE9F0436E
:1071F00081B0044690F84100202840F0B1808846D4
:1072000000294FF0010000F0D6801646002A00F059
:10721000D2800020606421201D4684F84100FEF7E2
:107220003DFDA684E684A1680646B1F5805F03D1E2
:107230002069002800F0988047464FF00008E18C54
:107240002068002900F0968005F101090BE000BFDD
:1072500047B317F8011B4160E18C0139E184E18CEF
:10726000002900F0878001680906F1D4B9F1000F08
:107270000AD0EDB1FEF712FD801BA84218D8206895
:1072800001680906F6D5E3E701680906E0D401685C
:1072900009065CBF01685FEA0161D9D4016809068B
:1072A000F2D5D5E738F8021B00276FF35F21D2E74C
:1072B000206850E8030F216820F4D07041E80302F1
:1072C000BAB3206850E8030F216820F4D07041E879
:1072D000030272B3206850E8030F216820F4D070D5
:1072E00041E803022AB3206850E8030F216820F424
:1072F000D07041E80302002ADAD11AE0206850E891
:10730000050F216820F0010041E80502DAB120688C
:1073100050E8050F216820F0010041E8050292B114
:10732000206850E8050F216820F0010041E80502BF
:107330004AB1206850E8050F216820F0010041E8BB
:107340000502002ADAD1202084F8410084F84200A6
:10735000002084F84000032001B0BDE8F08300BFA6
:10736000022001B0BDE8F0830027E18C20680029ED
:107370007FF46AAF0168490619D4FDB1691C0DD1CB
:107380000168490613D4016849065CBF01685FEAD9
:1073900041610CD401684906F2D508E0FEF77EFC95
:1073A000801BA8420AD8206800684006F6D5202035
:1073B00084F84100002001B0BDE8F083206850E867
:1073C000030F216820F4D07041E80302002A3ED068
:1073D000206850E8030F216820F4D07041E80302D0
:1073E000AAB3206850E8030F216820F4D07041E868
:1073F000030262B3206850E8030F216820F4D070C4
:1074000041E80302002AD9D121E000BF206850E8FA
:10741000050F216820F0010041E80502002A3FF431
:1074200092AF206850E8050F216820F0010041E884
:107430000502002A3FF487AF206850E8050F216855
:1074400020F0010041E80502002A3FF47CAF2068EB
:1074500050E8050F216820F0010041E80502002AEC
:10746000D4D170E77047000000F034F9FEE7000067
:10747000FEE700007047000070470000FEF714BCF4
:107480004EF6085044F20041CEF20000C0F6000172
:1074900001607047406A0021C185C184FFF712BBBB
:1074A00081B090F84210222921D183680246B3F5B9
:1074B000805F09D152F8281F52F8183C002B63D086
:1074C00003685B680AE000BF52F8281F13B903691C
:1074D000002BF5D003685B6803F07F030B70116825
:1074E00001311160C18D01390A04C18502D001B09A
:1074F000704700BF0168CA6822F02002CA60CA68EB
:1075000022F48072CA604A6922F001024A61202195
:1075100080F8421000214163026B012A3CD10163D3
:10752000016851E8031F026821F0100142E80313CB
:10753000DBB1016851E8031F026821F0100142E845
:10754000031393B1016851E8031F026821F0100191
:1075500042E803134BB1016851E8031F026821F0B0
:10756000100142E80313002BDAD101680A68D20641
:1075700006D5002200920A6800924968009100999D
:10758000818D01B0FFF79CBA026852686FF35F22E9
:1075900021F8022B8162A5E701B0FFF725BE0000AC
:1075A00040F21440C2F20000FFF78EBA70B540F20C
:1075B0007C06C2F200060320B0710A2040F250544B
:1075C000B0730020C2F20004C6F80700C6F80A0033
:1075D0002046FDF7A3F840F214450430C2F200053E
:1075E00082B2284621460F23FFF700FE06F10F0165
:1075F00028460122BDE87040FFF7CCBD2DE9F041DF
:1076000040F27C05C2F20005A98880462944C97B66
:10761000AA2905D1012068700020A880FEF73EFB52
:107620006978B5F804E0012940D1297CCA1C72456B
:107630003CD839B14A1E032A01F0030C04D20023BE
:10764000002212E0FF2121E001F0FC0100230022D2
:10765000EC18667CA77CE07C3244247D3A441044DC
:107660000433994204EB0002F2D1BCF1000F0CD0BC
:10767000E9184B7CBCF1010F1A4406D08B7CBCF19D
:10768000020F1A441CBFC97C0A44D1430EEB050209
:10769000907BCBB28342A97006D1D07B00281EBF5D
:1076A000012028704FF0000E002068700EF10103D9
:1076B00098B23F2888BF002398B2284400F10F01F8
:1076C00040460122AB80BDE8F041FFF763BD0000FA
:1076D000FEE700004EF60C50BFF34F8FCEF20000D5
:1076E0000168042201F4E061C0F2FA521143016022
:1076F000BFF34F8F00BF00BF00BF00BFFAE700001D
:107700002DE9F04104460078657894F802800E4631
:1077100000F07CFF0746304600F078FF3946064609
:1077200000F088FF0027C4F2C827394600F090FE19
:1077300000F050FF2070284600F068FF01463046F8
:1077400000F078FF394600F083FE00F043FF6070E0
:10775000404600F05BFF0146304600F06BFF3946C3
:1077600000F076FE00F036FFA070BDE8F08100006A
:1077700080B58AB040F2541042F20013C2F2000009
:107780000022C1F6EF030421C0E9062300F1200323
:107790004FF0080C83E8061080F82C20012004AB81
:1077A00008900A2107C3079040F2A010C2F200001F
:1077B0006946CDE90022CDE902220992FDF7AEFB30
:1077C000002818BFFDF7E2F80AB080BD10B540F2FE
:1077D0000810C2F2000000210170C0E90211C0E9E6
:1077E00004114FF4E16140F6980240F2127340F642
:1077F000A20C40F21C7E4FF411648162C2620363EA
:10780000C0F834C0C0F838E0C0E90F41426410BD90
:1078100080B500F013F800F0B3F840F2CB00C2F2EC
:10782000000005303721FCF798FF00F071F8FFF7F2
:10783000CDFFBDE8804000F08BB80000F0B581B00E
:1078400040F25C44C2F2000420469221FCF7A7FFFC
:1078500040F60045C4F2010505F5806630468021FA
:10786000FEF710FAA5F58067E07338464FF4007113
:10787000FEF708FA207428464FF48071FEF702FAEA
:10788000B0FA80F0400984F8720028464021FEF7E3
:10789000F9F9B0FA80F0400984F873003846022103
:1078A000FEF7F0F9B0FA80F0400984F87400384629
:1078B0000221FEF7E7F9B0FA80F0400984F875007C
:1078C00005F500600421FEF7DDF984F8760028460E
:1078D0001021FEF7D7F984F8770030464FF40061A5
:1078E000FEF7D0F9A07038464FF48071FEF7CAF960
:1078F000A07128464FF48041FEF7C4F9A0722846D3
:107900004FF48061FEF7BEF9A07301B0F0BD000036
:1079100080B540F2F810C2F2000000214180FF2241
:10792000A0F8071041810A2102714272817140F66C
:107930000040C4F2010004210122FEF7A9F9FF2052
:1079400000F06EFC4FF47F40BDE8804000F00EBDBB
:1079500040F2541241F60430C2F20002C0F27D003F
:1079600042F8100F40F2A0104FF0FF3C02F1080166
:10797000A2F10C03C2F20000C2F804C0FDF77ABA0B
:107980002DE9F04381B040F60045C4F2010505F54C
:10799000806840468021FEF775F940F25C44C2F2EF
:1079A0000004E17B81420AD040F2D001C2F2000122
:1079B000002818BF01310A78E073501C0870A5F543
:1079C000806630464FF40071FEF75CF9217C8142FD
:1079D0000BD040F2D0020321C2F20002002808BFFF
:1079E0000221535C2074581C505428464FF4807177
:1079F000FEF748F994F87220B0FA80F149098A42FA
:107A00000DD0002840F2D0004FF00402C2F2000076
:107A100008BF0522835C84F87210591C81542846E3
:107A20004021FEF72FF994F87320B0FA80F149094C
:107A30008A420DD0002840F2D0004FF00602C2F278
:107A4000000008BF0722835C84F87310591C81541E
:107A500030460221FEF716F994F87420B0FA80F14E
:107A600049098A420DD0002840F2D0004FF00802A8
:107A7000C2F2000008BF0922835C84F87410591C0C
:107A8000815430462021FEF7FDF894F87520B0FAB5
:107A900080F149098A420DD0002840F2D0004FF011
:107AA0000A02C2F2000008BF0B22835C84F8751042
:107AB000591C815405F500600421FEF7E3F894F8A1
:107AC000761081420CD040F2D0020D21C2F20002A9
:107AD000002808BF0C21535C84F87600581C5054D1
:107AE00028461021FEF7CEF894F87710814209D08D
:107AF00084F8770030B140F2D000C2F20000817B00
:107B00000131817340464FF40061FEF7BBF8A17864
:107B1000814208D0A07030B140F2D000C2F2000023
:107B2000C17B0131C17330464FF40041FEF7AAF822
:107B3000074640464FF48061FEF7A4F840F278090A
:107B4000C2F2000999F8001000EB470301F00302AC
:107B50009A4220D0012F08BF012805D07A0002EBFD
:107B60008101084415E000BF40F2D0001229C2F2A2
:107B7000000005D021290BD111304FF6FF7101E033
:107B8000103001212288114402782180511C01709B
:107B9000002089F8000030464FF48071FEF772F83B
:107BA000A179814207D0A07128B140F2D000C2F281
:107BB00000000121817440464FF40071FEF762F825
:107BC000064640464FF48071FEF75CF899F80110C4
:107BD00000EB460301F003029A4209D0012E08BFD0
:107BE000012833D0720002EB8101084489F80100BA
:107BF00028464FF48041FEF745F8A17A814208D02B
:107C0000A07230B140F2D000C2F20000417D0131DB
:107C1000417528464FF48051FEF734F80646284651
:107C20004FF40061FEF72EF899F8021000EB4603BE
:107C300001F003029A423CD0012E08BF012815D062
:107C4000720002EB8101084431E000BF212919D004
:107C5000122973D140F2D001A088C2F20001CA7C7F
:107C60000130A080501CC8740020BFE740F2D00053
:107C70001229C2F2000011D0212917D117304FF676
:107C8000FF710DE040F2D000C2F20000017DA28839
:107C900001310175501EA0800020A7E71630012198
:107CA0002289114402782181511C0170002089F839
:107CB000020028464FF48061FDF7E4FFA17B81427A
:107CC00008D0A07330B140F2D000C2F20000017EB3
:107CD0000131017640462021FDF7D4FF054640469C
:107CE0001021FDF7CFFF99F8031000EB450301F0D9
:107CF00003029A421FD0012D08BF012804D06A0058
:107D000002EB8101084414E040F2D0001229C2F2D3
:107D1000000005D021290BD11A304FF6FF7101E088
:107D200019300121A28911440278A181511C0170EE
:107D3000002089F8030001B0BDE8F083002055E77A
:107D400096B0FDF7BFFF00240120CDE91144CDE935
:107D50000F440C9010904FF4E0104FF48031022546
:107D600015900CA80594CDE90344CDE90144CDE973
:107D70000D14CDE91351FEF7DDF928B1EFF31080B2
:107D800072B600BFFEE700BF0F20CDE907054FF434
:107D90008060CDE90A0407A802210994FEF7C2F821
:107DA00020B1EFF3108072B6FEE700BF4FF4004041
:107DB0004FF0020902906846CDF80090FEF72CF8CB
:107DC00020B1EFF3108072B6FEE700BF40F208006A
:107DD000C2F200000278437840F2505040F60008AA
:107DE000C2F200000FF2F431C4F20108FCF712FCF9
:107DF000002741F218040F97C4F202042068802182
:107E000040F0200020602068002200F02000009058
:107E1000009820684FF0800B40F010002060206830
:107E200000F0100000900098206840F004002060EE
:107E3000206800F0040000900098206840F00800DE
:107E40002060206800F00800009000984046FDF790
:107E50001FFF08F580652846042100224FF0040A20
:107E6000FDF716FF48F272700CAECDE90C074046E4
:107E700031460E97FDF708FECDF830B04FF0010BFC
:107E800040463146CDE90DB7CDF83C90FDF7FCFDFD
:107E900041F6F070CDE90C0708F5006031460E9709
:107EA000FDF7F2FD28463146CDE90CABCDE90E7960
:107EB000FDF7EAFD45F6D070CDE90C0728463146BE
:107EC0000E97FDF7E1FD08F540603146CDE90CA7BE
:107ED0000E97FDF7D9FD54F8040C002140F0020084
:107EE00044F8040C54F8040C002200F002000C903A
:107EF0000C9854F8040C40F0010044F8040C54F8B9
:107F0000040C00F001000C900C980F20FDF748FFC6
:107F10000F20FDF731FF392000210022FDF740FF3F
:107F20003920FDF729FF40F21440A8F54441C2F280
:107F300000000C234FF4964280E88600C0E90377E6
:107F4000C0E90537C761FFF76FF828B1EFF310807C
:107F500072B600BFFEE700BF40F23C3008F510519A
:107F6000C2F2000042F20F730F97CDE90D77CDE911
:107F70000077272280E88600C0E90337C0E905774B
:107F8000FEF7F8FB20B1EFF3108072B6FEE700BFFA
:107F90004FF480500C9040F23C30C2F200000CA92B
:107FA000FEF7C0FC20B1EFF3108072B6FEE700BF11
:107FB00040F23C30C2F200006946FEF791FB28B166
:107FC000EFF3108072B600BFFEE700BF40F28430CE
:107FD0000021C2F200004FF080424FF6FF730F9174
:107FE000CDE90D11CDE90011C0E90021C0E902136E
:107FF00001618161FEF7BEFB20B1EFF3108072B624
:10800000FEE700BF4FF480500C9040F28430C2F283
:1080100000000CA9FEF786FC20B1EFF3108072B6C9
:10802000FEE700BF40F28430C2F200006946FEF76E
:1080300057FB28B1EFF3108072B600BFFEE700BF18
:1080400040F2E420A8F54C41C2F200004FF48277E0
:1080500000244FF4007910260A25C0E90017C0E972
:108060000244C0E90444C0E90696C0E90844C0E9F6
:108070000A45FEF739FA18B1EFF3108072B6FEE741
:1080800040F28C20A8F55041C2F20000C0E9001770
:10809000C0E90244C0E90444C0E90696C0E90844C6
:1080A000C0E90A45FEF720FA20B1EFF3108072B65E
:1080B000FEE700BF40F2CC300021A8F58232C2F2C8
:1080C00000004FF6FF730F91CDE90D11CDE90011BE
:1080D000C0E90021C0E9021301618161FEF74AFB9A
:1080E00020B1EFF3108072B6FEE700BF4FF480506E
:1080F0000C9040F2CC30C2F200000CA9FEF712FC4A
:1081000020B1EFF3108072B6FEE700BF40F2CC3032
:10811000C2F200006946FEF7E3FA18B1EFF31080EF
:1081200072B6FEE740F2A015C2F2000508F5E05174
:10813000284640F8281F00244FF4602101260473CC
:108140000475C161C0E901440661FCF777FD18B10F
:10815000EFF3108072B6FEE70820CDE90C0605F1BA
:1081600028000CA90E94FCF719FC18B1EFF310804D
:1081700072B6FEE7A8F52440092100224FF4A0239F
:1081800085E807002846C5E90323C5E90522AA8337
:10819000FDF706F920B1EFF3108072B6FEE700BFDD
:1081A000FFF7E6FAFFF734FB404680210122FDF796
:1081B0006FFD404680210022FDF76AFD40F2A014C9
:1081C000C2F200042046FDF7C9F920461021FCF751
:1081D00039FEFFF7EBF9FFF7BBFBFCE70D0A436F36
:1081E0006E736F6C654669726D7761726520766536
:1081F0007273696F6E2025642E25640D0A000000DD
:1082000040F20811C2F200010A7801EB4201088134
:1082100040F21000C2F2000001210170704700001E
:10822000B0B540F2F0450446C2F2000528462146AA
:10823000FFF766FAE81C2146FFF762FAA81D2146FF
:10824000FFF75EFA05F109002146FFF759FA05F13B
:108250000C002146FFF754FA05F10F002146FFF705
:108260004FFA05F112002146FFF74AFA05F1150011
:108270002146FFF745FA05F118002146FFF740FABD
:1082800005F11B002146FFF73BFA05F11E002146D0
:10829000FFF736FA05F121002146FFF731FA05F123
:1082A00024002146FFF72CFA05F127002146FFF7AD
:1082B00027FA05F12A002146FFF722FA05F12D00E1
:1082C0002146FFF71DFA05F130002146FFF718FAA5
:1082D00005F133002146FFF713FA05F13600214678
:1082E000FFF70EFA05F139002146FFF709FA05F10B
:1082F0003C002146FFF704FA05F13F002146FFF755
:10830000FFF905F142002146FFF7FAF905F14500B2
:108310002146FFF7F5F905F148002146FFF7F0F98E
:1083200005F14B002146FFF7EBF905F14E00214620
:10833000FFF7E6F905F151002146FFF7E1F905F1F4
:1083400054002146FFF7DCF905F157002146FFF7FD
:10835000D7F905F15A002146FFF7D2F905F15D0082
:108360002146BDE8B040FFF7CBB9000040F2F04134
:10837000C2F20001020C08808A70A1F803004A7161
:10838000C8800A72A1F80900CA7288818A73A1F8AC
:108390000F004A7448820A75A1F81500CA7508834F
:1083A0008A76A1F81B004A77C88381F82020A1F8BB
:1083B000210081F82320888481F82620A1F8270055
:1083C00081F82920488581F82C20A1F82D0081F81A
:1083D0002F20088681F83220A1F8330081F835205B
:1083E000C88681F83820A1F8390081F83B208887B9
:1083F00081F83E20A1F83F0081F84120A1F8420019
:1084000081F84420A1F8450081F84720A1F84800F0
:1084100081F84A20A1F84B0081F84D20A1F84E00C8
:1084200081F85020A1F8510081F85320A1F85400A0
:1084300081F85620A1F8570081F85920A1F85A0078
:1084400081F85C20A1F85D0081F85F207047000092
:108450004FF47F0C1CEAD0121EBF1CEAD11392EA23
:108460000C0F93EA0C0F00F0858090EA010F48BFD3
:1084700042F4807240F4000C41F400002CF07F4183
:1084800020F07F4000B5A2EB030281420FF2081CEE
:10849000ACEB504E9EF800E0C0F100004FEA4E0EEB
:1084A00000FB0EFC38BF49004FEA2C1C0CFB0EF3FE
:1084B0004FEACE1E0EEB635E4FEA112C0EFB0CFC56
:1084C0004FEAC1214FEA1C5300FB031102F5FA02E7
:1084D0004FEA112C0EFB0CFC4FEA01314FEADC4C49
:1084E00000FB0C1142EB2242C14228BF09184CEBA1
:1084F00003335DF804EB10EB410143EBC250B2F5DE
:108500007C0F38BF704729D512F0F00F1CBF00F167
:10851000C04000F0004070470081828384858687D8
:1085200088898B8C8D8E8F919293959697999A9C32
:108530009D9FA0A2A3A5A7A8AAACAEB0B2B3B5B7A1
:10854000B9BCBEC0C2C5C7C9CCCED1D4D7D9DCDF77
:10855000E2E6E9ECF0F3F7FAFE0000004FEA400C27
:108560000CF1807CBCF17E4F28BF7047B0F1C04059
:1085700000F027B90CEAD11390EA010F48BF42F48A
:108580008072624538BF634507D213F47F0F16D05F
:1085900080EA010000F00040704710B500F0CBF811
:1085A000097EFC3E00F005B880EA010000F00040C2
:1085B000704780EA010000F0004000F002B912F4B8
:1085C0007F0F04BF0248704780EA010000F0F9B84D
:1085D0000000C07F41000B0ED3F19E0208D950F479
:1085E00000034FEA032323FA02F048BF40427047DA
:1085F00010B500F0A0F800BF499224800020704719
:108600006FF0004282EA200070470000B0FA80F369
:1086100010FA03F2C3F19D030AD0D90501EB122031
:10862000530638BF704700F1010008BF20F0010079
:10863000704700004FF47F0C1CEAD0121EBF1CEAEA
:10864000D11392EA0C0F93EA0C0F00F0478090EAE6
:10865000010F48BF42F480724FF0004C4CEA0020FA
:108660004CEA012102EB0302A0FB0113A2F5000278
:10867000002918BF43F001035B0028BF4FEA330312
:1086800042EB22425FEA132C4CEBC2502EBFBCEBF4
:10869000436FB2F57C0F70474FEA036CBCF1004F9B
:1086A00008BF20F00100B2F57C0F38BF70470BD532
:1086B00082F0FF0212F5803FC8BF704700F1C04052
:1086C000D8BF00F00040704700F5000C5FEA4C0C8A
:1086D00048BF7047B0F1C04000F073B80CEAD11346
:1086E00090EA010F48BF42F48072624538BF63458B
:1086F00004D280EA010000F00040704710B500F09D
:108700001AF800BF8900013E00F007B800F009B870
:108710005FEA410C5FEA1C6C08D080EA010000F0BF
:1087200050B85FEA400C5FEA1C6CF6D14FF0004095
:10873000A0F5800070470EF1020E2EF0030E5EF8D9
:10874000044B244204D44FEA4102B2F17F4F11D8C6
:108750004FEA4003B3F17F4F0CD80ED14FEAD07CE3
:108760000CEB4C0C0CF1020CB2F17F4F08BF4CEB40
:10877000D17C04E04FF0080C01E04FEAD17C0CEB17
:108780004C0324FA03F404F00704B4F1040C06D2F9
:108790000EEB840CBDE810404CF0010C6047DFE8A4
:1087A0000CF0070802024FF00040A0F5800010BD59
:1087B0000846420018BFD2F1807288BF00F0004026
:1087C00010BDFF2141EAD050C005704700000000F5
:1087D0000000000001020304060708090000000071
:1087E00001020304010202030405060708090A0B3B
:1087F0000C0D0E0F1010000018880008000000205B
:10880000180000006C45000830880008180000209F
:10881000800B0000884500080100000010000000E7
:10882000000700000024F400010000000000000028
:040000050800453179
:00000001FF
